{"contracts/MonopolyGameEscrow.sol":{"MonopolyGameEscrow":{"abi":[{"inputs":[{"internalType":"address","name":"_creatorWallet","type":"address"}],"stateMutability":"nonpayable","type":"constructor"},{"anonymous":false,"inputs":[{"indexed":true,"internalType":"address","name":"oldWallet","type":"address"},{"indexed":true,"internalType":"address","name":"newWallet","type":"address"}],"name":"CreatorWalletUpdated","type":"event"},{"anonymous":false,"inputs":[{"indexed":true,"internalType":"bytes32","name":"gameId","type":"bytes32"},{"indexed":true,"internalType":"address","name":"recipient","type":"address"},{"indexed":false,"internalType":"uint256","name":"amount","type":"uint256"}],"name":"EmergencyWithdrawal","type":"event"},{"anonymous":false,"inputs":[{"indexed":true,"internalType":"bytes32","name":"gameId","type":"bytes32"},{"indexed":false,"internalType":"uint256","name":"totalPool","type":"uint256"}],"name":"GameFull","type":"event"},{"anonymous":false,"inputs":[{"indexed":true,"internalType":"address","name":"previousOwner","type":"address"},{"indexed":true,"internalType":"address","name":"newOwner","type":"address"}],"name":"OwnershipTransferred","type":"event"},{"anonymous":false,"inputs":[{"indexed":true,"internalType":"bytes32","name":"gameId","type":"bytes32"},{"indexed":true,"internalType":"address","name":"player","type":"address"},{"indexed":false,"internalType":"uint256","name":"amount","type":"uint256"},{"indexed":false,"internalType":"uint256","name":"currentPlayerCount","type":"uint256"}],"name":"PlayerDeposited","type":"event"},{"anonymous":false,"inputs":[{"indexed":true,"internalType":"bytes32","name":"gameId","type":"bytes32"},{"indexed":false,"internalType":"address","name":"winner","type":"address"},{"indexed":false,"internalType":"uint256","name":"winnerAmount","type":"uint256"},{"indexed":false,"internalType":"address","name":"firstRunner","type":"address"},{"indexed":false,"internalType":"uint256","name":"firstRunnerAmount","type":"uint256"},{"indexed":false,"internalType":"address","name":"secondRunner","type":"address"},{"indexed":false,"internalType":"uint256","name":"secondRunnerAmount","type":"uint256"},{"indexed":false,"internalType":"address","name":"lastPlayer","type":"address"},{"indexed":false,"internalType":"uint256","name":"lastPlayerAmount","type":"uint256"},{"indexed":false,"internalType":"uint256","name":"remainderToCreator","type":"uint256"}],"name":"PrizeDistributed","type":"event"},{"inputs":[],"name":"ENTRY_FEE","outputs":[{"internalType":"uint256","name":"","type":"uint256"}],"stateMutability":"view","type":"function"},{"inputs":[],"name":"TOTAL_PLAYERS","outputs":[{"internalType":"uint256","name":"","type":"uint256"}],"stateMutability":"view","type":"function"},{"inputs":[],"name":"creatorWallet","outputs":[{"internalType":"address","name":"","type":"address"}],"stateMutability":"view","type":"function"},{"inputs":[{"internalType":"bytes32","name":"_gameId","type":"bytes32"}],"name":"emergencyWithdraw","outputs":[],"stateMutability":"nonpayable","type":"function"},{"inputs":[],"name":"getContractBalance","outputs":[{"internalType":"uint256","name":"","type":"uint256"}],"stateMutability":"view","type":"function"},{"inputs":[],"name":"getCreatorWallet","outputs":[{"internalType":"address","name":"","type":"address"}],"stateMutability":"view","type":"function"},{"inputs":[{"internalType":"bytes32","name":"_gameId","type":"bytes32"}],"name":"getGameDetails","outputs":[{"internalType":"address[]","name":"players","type":"address[]"},{"internalType":"uint256","name":"poolAmount","type":"uint256"},{"internalType":"bool","name":"isCompleted","type":"bool"},{"internalType":"bool","name":"hasTransferred","type":"bool"}],"stateMutability":"view","type":"function"},{"inputs":[{"internalType":"bytes32","name":"_gameId","type":"bytes32"}],"name":"getPlayerCount","outputs":[{"internalType":"uint256","name":"","type":"uint256"}],"stateMutability":"view","type":"function"},{"inputs":[{"internalType":"bytes32","name":"_gameId","type":"bytes32"}],"name":"getPlayers","outputs":[{"internalType":"address[]","name":"","type":"address[]"}],"stateMutability":"view","type":"function"},{"inputs":[{"internalType":"bytes32","name":"_gameId","type":"bytes32"}],"name":"getPoolAmount","outputs":[{"internalType":"uint256","name":"","type":"uint256"}],"stateMutability":"view","type":"function"},{"inputs":[{"internalType":"bytes32","name":"_gameId","type":"bytes32"},{"internalType":"address","name":"_player","type":"address"}],"name":"hasPlayerDeposited","outputs":[{"internalType":"bool","name":"","type":"bool"}],"stateMutability":"view","type":"function"},{"inputs":[{"internalType":"bytes32","name":"_gameId","type":"bytes32"}],"name":"hasPrizesTransferred","outputs":[{"internalType":"bool","name":"","type":"bool"}],"stateMutability":"view","type":"function"},{"inputs":[{"internalType":"bytes32","name":"_gameId","type":"bytes32"}],"name":"isGameCompleted","outputs":[{"internalType":"bool","name":"","type":"bool"}],"stateMutability":"view","type":"function"},{"inputs":[],"name":"owner","outputs":[{"internalType":"address","name":"","type":"address"}],"stateMutability":"view","type":"function"},{"inputs":[{"internalType":"bytes32","name":"_gameId","type":"bytes32"}],"name":"playerDeposit","outputs":[],"stateMutability":"payable","type":"function"},{"inputs":[{"internalType":"bytes32","name":"_gameId","type":"bytes32"},{"internalType":"address[4]","name":"_rankedPlayers","type":"address[4]"}],"name":"prizeWithdrawal","outputs":[],"stateMutability":"nonpayable","type":"function"},{"inputs":[{"internalType":"address","name":"_newCreatorWallet","type":"address"}],"name":"setCreatorWallet","outputs":[],"stateMutability":"nonpayable","type":"function"},{"inputs":[{"internalType":"address","name":"_newOwner","type":"address"}],"name":"transferOwnership","outputs":[],"stateMutability":"nonpayable","type":"function"}],"evm":{"bytecode":{"linkReferences":{},"object":"608060405234801561001057600080fd5b506040516114d83803806114d883398101604081905261002f916100bf565b6001600160a01b0381166100895760405162461bcd60e51b815260206004820152601660248201527f496e76616c69642063726561746f722077616c6c657400000000000000000000604482015260640160405180910390fd5b60008054336001600160a01b031991821617909155600180549091166001600160a01b03929092169190911781556002556100ef565b6000602082840312156100d157600080fd5b81516001600160a01b03811681146100e857600080fd5b9392505050565b6113da806100fe6000396000f3fe6080604052600436106101095760003560e01c80638a1fa02911610095578063ba69b7f711610064578063ba69b7f71461010e578063d3d9890114610308578063f2fde38b14610328578063f6912f6214610348578063f6d361cc1461035d57600080fd5b80638a1fa0291461026b5780638da5cb5b1461029b578063af1e19d9146102bb578063b4819e12146102e857600080fd5b80634940730b116100dc5780634940730b146101bd578063604da6da146101dd5780636f9fb98a1461021857806375870d651461022b5780637cdc65f21461024b57600080fd5b80631f65db511461010e57806321570d4314610156578063296d19a8146101765780633c37015c146101a8575b600080fd5b34801561011a57600080fd5b5061014161012936600461114a565b60009081526003602052604090206002015460ff1690565b60405190151581526020015b60405180910390f35b34801561016257600080fd5b5061014161017136600461117f565b610379565b34801561018257600080fd5b506001546001600160a01b03165b6040516001600160a01b03909116815260200161014d565b6101bb6101b636600461114a565b6103a9565b005b3480156101c957600080fd5b506101bb6101d83660046111ab565b6105f5565b3480156101e957600080fd5b5061020a6101f836600461114a565b60009081526003602052604090205490565b60405190815260200161014d565b34801561022457600080fd5b504761020a565b34801561023757600080fd5b506101bb61024636600461114a565b6106b9565b34801561025757600080fd5b50600154610190906001600160a01b031681565b34801561027757600080fd5b5061028b61028636600461114a565b6108bc565b60405161014d9493929190611211565b3480156102a757600080fd5b50600054610190906001600160a01b031681565b3480156102c757600080fd5b506102db6102d636600461114a565b610965565b60405161014d9190611242565b3480156102f457600080fd5b5061020a61030336600461114a565b6109d1565b34801561031457600080fd5b506101bb61032336600461126b565b6109f3565b34801561033457600080fd5b506101bb6103433660046111ab565b611088565b34801561035457600080fd5b5061020a600481565b34801561036957600080fd5b5061020a670de0b6b3a764000081565b60008281526003602090815260408083206001600160a01b038516845260010190915290205460ff165b92915050565b60028054036103d35760405162461bcd60e51b81526004016103ca906112fc565b60405180910390fd5b60028055600081815260036020526040902034670de0b6b3a7640000146104325760405162461bcd60e51b8152602060048201526013602482015272496e636f727265637420656e7472792066656560681b60448201526064016103ca565b600281015460ff16156104805760405162461bcd60e51b815260206004820152601660248201527511d85b5948185b1c9958591e4818dbdb5c1b195d195960521b60448201526064016103ca565b80546004116104c05760405162461bcd60e51b815260206004820152600c60248201526b11d85b59481a5cc8199d5b1b60a21b60448201526064016103ca565b33600090815260018201602052604090205460ff16156105225760405162461bcd60e51b815260206004820152601860248201527f506c6179657220616c7265616479206465706f7369746564000000000000000060448201526064016103ca565b8054600180820183556000838152602080822090930180546001600160a01b031916339081179091558082528285018452604091829020805460ff19169093179092558354815134815293840152909184917f56b037fc6b9c847f767384424ebf0862e14b059d33d341f3bd331409f82010e3910160405180910390a38054600319016105ec57817f67656635a63665e7256662905d7205219df6a6151c83b54724b3bad7ccf1d187673782dace9d9000006040516105e391815260200190565b60405180910390a25b50506001600255565b6000546001600160a01b0316331461061f5760405162461bcd60e51b81526004016103ca90611324565b6001600160a01b0381166106675760405162461bcd60e51b815260206004820152600f60248201526e496e76616c6964206164647265737360881b60448201526064016103ca565b600180546001600160a01b038381166001600160a01b0319831681179093556040519116919082907f6b689c4c929a6fdd19fc8a3715997c5112f97f33757da4832bf0ab141c55accd90600090a35050565b6000546001600160a01b031633146106e35760405162461bcd60e51b81526004016103ca90611324565b60028054036107045760405162461bcd60e51b81526004016103ca906112fc565b60028055600081815260036020526040902080546107595760405162461bcd60e51b81526020600482015260126024820152714e6f20706c617965727320696e2067616d6560701b60448201526064016103ca565b600281015460ff16156107ae5760405162461bcd60e51b815260206004820152601a60248201527f5072697a657320616c7265616479207472616e7366657272656400000000000060448201526064016103ca565b805460028201805460ff1916600117905560005b818110156108b15760008360000182815481106107e1576107e1611348565b60009182526020822001546040516001600160a01b0390911692508290670de0b6b3a7640000908381818185875af1925050503d8060008114610840576040519150601f19603f3d011682016040523d82523d6000602084013e610845565b606091505b50509050801561089c57816001600160a01b0316867f668ede93de2924e11e5554ea95dd0839a40ddf58c1f04b209fde0dc8298a75c8670de0b6b3a764000060405161089391815260200190565b60405180910390a35b505080806108a990611374565b9150506107c2565b505060016002555050565b6000818152600360205260408120805460609291829182919082906108ea90670de0b6b3a76400009061138d565b60028301548354604080516020808402820181019092528281529394508593859360ff1692839286919083018282801561094d57602002820191906000526020600020905b81546001600160a01b0316815260019091019060200180831161092f575b50505050509350955095509550955050509193509193565b6000818152600360209081526040918290208054835181840281018401909452808452606093928301828280156109c557602002820191906000526020600020905b81546001600160a01b031681526001909101906020018083116109a7575b50505050509050919050565b6000818152600360205260408120546103a390670de0b6b3a76400009061138d565b6000546001600160a01b03163314610a1d5760405162461bcd60e51b81526004016103ca90611324565b6002805403610a3e5760405162461bcd60e51b81526004016103ca906112fc565b6002805560008281526003602052604090208054600414610aa15760405162461bcd60e51b815260206004820152601960248201527f4e6f7420616c6c20706c6179657273206465706f73697465640000000000000060448201526064016103ca565b600281015460ff1615610af65760405162461bcd60e51b815260206004820152601a60248201527f5072697a657320616c7265616479207472616e7366657272656400000000000060448201526064016103ca565b815160208084015160408086015160608701516001600160a01b038616600090815260018801909552919093205491929160ff16610b6b5760405162461bcd60e51b815260206004820152601260248201527157696e6e6572206e6f7420696e2067616d6560701b60448201526064016103ca565b6001600160a01b038316600090815260018601602052604090205460ff16610bd55760405162461bcd60e51b815260206004820152601860248201527f46697273742072756e6e6572206e6f7420696e2067616d65000000000000000060448201526064016103ca565b6001600160a01b038216600090815260018601602052604090205460ff16610c3f5760405162461bcd60e51b815260206004820152601960248201527f5365636f6e642072756e6e6572206e6f7420696e2067616d650000000000000060448201526064016103ca565b6001600160a01b038116600090815260018601602052604090205460ff16610ca95760405162461bcd60e51b815260206004820152601760248201527f4c61737420706c61796572206e6f7420696e2067616d6500000000000000000060448201526064016103ca565b826001600160a01b0316846001600160a01b031614158015610cdd5750816001600160a01b0316846001600160a01b031614155b8015610cfb5750806001600160a01b0316846001600160a01b031614155b8015610d195750816001600160a01b0316836001600160a01b031614155b8015610d375750806001600160a01b0316836001600160a01b031614155b8015610d555750806001600160a01b0316826001600160a01b031614155b610d9a5760405162461bcd60e51b8152602060048201526016602482015275506c6179657273206d75737420626520756e6971756560501b60448201526064016103ca565b60028501805460ff1916600117905560405160009081906001600160a01b03871690671bc16d674ec80000908381818185875af1925050503d8060008114610dfe576040519150601f19603f3d011682016040523d82523d6000602084013e610e03565b606091505b505090508015610e1b57671bc16d674ec80000820191505b6000856001600160a01b0316670de0b6b3a764000060405160006040518083038185875af1925050503d8060008114610e70576040519150601f19603f3d011682016040523d82523d6000602084013e610e75565b606091505b505090508015610e8d57670de0b6b3a7640000830192505b6000856001600160a01b03166706f05b59d3b2000060405160006040518083038185875af1925050503d8060008114610ee2576040519150601f19603f3d011682016040523d82523d6000602084013e610ee7565b606091505b505090508015610eff576706f05b59d3b20000840193505b673782dace9d900000848103908514610fb7576001546040516000916001600160a01b03169083908381818185875af1925050503d8060008114610f5f576040519150601f19603f3d011682016040523d82523d6000602084013e610f64565b606091505b5050905080610fb55760405162461bcd60e51b815260206004820152601760248201527f43726561746f72207472616e73666572206661696c656400000000000000000060448201526064016103ca565b505b8b7fd8800017132820fa3f7d99da421e8af652b036231c04bd11dc0aa593aab3727d8a86610fe6576000610ff0565b671bc16d674ec800005b8b87610ffd576000611007565b670de0b6b3a76400005b8c8861101457600061101e565b6706f05b59d3b200005b604080516001600160a01b03978816815260208101969096529386168585015260608501929092528416608084015260a0830152918a1660c0820152600060e082015261010081018590529051908190036101200190a25050600160025550505050505050505050565b6000546001600160a01b031633146110b25760405162461bcd60e51b81526004016103ca90611324565b6001600160a01b0381166110fa5760405162461bcd60e51b815260206004820152600f60248201526e496e76616c6964206164647265737360881b60448201526064016103ca565b600080546001600160a01b038381166001600160a01b0319831681178455604051919092169283917f8be0079c531659141344cd1fd0a4f28419497f9722a3daafe3b4186f6b6457e09190a35050565b60006020828403121561115c57600080fd5b5035919050565b80356001600160a01b038116811461117a57600080fd5b919050565b6000806040838503121561119257600080fd5b823591506111a260208401611163565b90509250929050565b6000602082840312156111bd57600080fd5b6111c682611163565b9392505050565b600081518084526020808501945080840160005b838110156112065781516001600160a01b0316875295820195908201906001016111e1565b509495945050505050565b60808152600061122460808301876111cd565b60208301959095525091151560408301521515606090910152919050565b6020815260006111c660208301846111cd565b634e487b7160e01b600052604160045260246000fd5b60008060a0838503121561127e57600080fd5b82359150602084603f85011261129357600080fd5b6040516080810181811067ffffffffffffffff821117156112b6576112b6611255565b6040528060a08601878111156112cb57600080fd5b8387015b818110156112ed576112e081611163565b83529184019184016112cf565b50505080925050509250929050565b6020808252600e908201526d1499595b9d1c985b9d0818d85b1b60921b604082015260600190565b6020808252600a908201526927b7363c9037bbb732b960b11b604082015260600190565b634e487b7160e01b600052603260045260246000fd5b634e487b7160e01b600052601160045260246000fd5b6000600182016113865761138661135e565b5060010190565b80820281158282048414176103a3576103a361135e56fea26469706673582212208b401f7f7ae628e8f78d4f46d79d1b09efc82826c9fbead574b24d6e330d6f0f64736f6c63430008140033","opcodes":"PUSH1 0x80 PUSH1 0x40 MSTORE CALLVALUE DUP1 ISZERO PUSH2 0x10 JUMPI PUSH1 0x0 DUP1 REVERT JUMPDEST POP PUSH1 0x40 MLOAD PUSH2 0x14D8 CODESIZE SUB DUP1 PUSH2 0x14D8 DUP4 CODECOPY DUP2 ADD PUSH1 0x40 DUP2 SWAP1 MSTORE PUSH2 0x2F SWAP2 PUSH2 0xBF JUMP JUMPDEST PUSH1 0x1 PUSH1 0x1 PUSH1 0xA0 SHL SUB DUP2 AND PUSH2 0x89 JUMPI PUSH1 0x40 MLOAD PUSH3 0x461BCD PUSH1 0xE5 SHL DUP2 MSTORE PUSH1 0x20 PUSH1 0x4 DUP3 ADD MSTORE PUSH1 0x16 PUSH1 0x24 DUP3 ADD MSTORE PUSH32 0x496E76616C69642063726561746F722077616C6C657400000000000000000000 PUSH1 0x44 DUP3 ADD MSTORE PUSH1 0x64 ADD PUSH1 0x40 MLOAD DUP1 SWAP2 SUB SWAP1 REVERT JUMPDEST PUSH1 0x0 DUP1 SLOAD CALLER PUSH1 0x1 PUSH1 0x1 PUSH1 0xA0 SHL SUB NOT SWAP2 DUP3 AND OR SWAP1 SWAP2 SSTORE PUSH1 0x1 DUP1 SLOAD SWAP1 SWAP2 AND PUSH1 0x1 PUSH1 0x1 PUSH1 0xA0 SHL SUB SWAP3 SWAP1 SWAP3 AND SWAP2 SWAP1 SWAP2 OR DUP2 SSTORE PUSH1 0x2 SSTORE PUSH2 0xEF JUMP JUMPDEST PUSH1 0x0 PUSH1 0x20 DUP3 DUP5 SUB SLT ISZERO PUSH2 0xD1 JUMPI PUSH1 0x0 DUP1 REVERT JUMPDEST DUP2 MLOAD PUSH1 0x1 PUSH1 0x1 PUSH1 0xA0 SHL SUB DUP2 AND DUP2 EQ PUSH2 0xE8 JUMPI PUSH1 0x0 DUP1 REVERT JUMPDEST SWAP4 SWAP3 POP POP POP JUMP JUMPDEST PUSH2 0x13DA DUP1 PUSH2 0xFE PUSH1 0x0 CODECOPY PUSH1 0x0 RETURN INVALID PUSH1 0x80 PUSH1 0x40 MSTORE PUSH1 0x4 CALLDATASIZE LT PUSH2 0x109 JUMPI PUSH1 0x0 CALLDATALOAD PUSH1 0xE0 SHR DUP1 PUSH4 0x8A1FA029 GT PUSH2 0x95 JUMPI DUP1 PUSH4 0xBA69B7F7 GT PUSH2 0x64 JUMPI DUP1 PUSH4 0xBA69B7F7 EQ PUSH2 0x10E JUMPI DUP1 PUSH4 0xD3D98901 EQ PUSH2 0x308 JUMPI DUP1 PUSH4 0xF2FDE38B EQ PUSH2 0x328 JUMPI DUP1 PUSH4 0xF6912F62 EQ PUSH2 0x348 JUMPI DUP1 PUSH4 0xF6D361CC EQ PUSH2 0x35D JUMPI PUSH1 0x0 DUP1 REVERT JUMPDEST DUP1 PUSH4 0x8A1FA029 EQ PUSH2 0x26B JUMPI DUP1 PUSH4 0x8DA5CB5B EQ PUSH2 0x29B JUMPI DUP1 PUSH4 0xAF1E19D9 EQ PUSH2 0x2BB JUMPI DUP1 PUSH4 0xB4819E12 EQ PUSH2 0x2E8 JUMPI PUSH1 0x0 DUP1 REVERT JUMPDEST DUP1 PUSH4 0x4940730B GT PUSH2 0xDC JUMPI DUP1 PUSH4 0x4940730B EQ PUSH2 0x1BD JUMPI DUP1 PUSH4 0x604DA6DA EQ PUSH2 0x1DD JUMPI DUP1 PUSH4 0x6F9FB98A EQ PUSH2 0x218 JUMPI DUP1 PUSH4 0x75870D65 EQ PUSH2 0x22B JUMPI DUP1 PUSH4 0x7CDC65F2 EQ PUSH2 0x24B JUMPI PUSH1 0x0 DUP1 REVERT JUMPDEST DUP1 PUSH4 0x1F65DB51 EQ PUSH2 0x10E JUMPI DUP1 PUSH4 0x21570D43 EQ PUSH2 0x156 JUMPI DUP1 PUSH4 0x296D19A8 EQ PUSH2 0x176 JUMPI DUP1 PUSH4 0x3C37015C EQ PUSH2 0x1A8 JUMPI JUMPDEST PUSH1 0x0 DUP1 REVERT JUMPDEST CALLVALUE DUP1 ISZERO PUSH2 0x11A JUMPI PUSH1 0x0 DUP1 REVERT JUMPDEST POP PUSH2 0x141 PUSH2 0x129 CALLDATASIZE PUSH1 0x4 PUSH2 0x114A JUMP JUMPDEST PUSH1 0x0 SWAP1 DUP2 MSTORE PUSH1 0x3 PUSH1 0x20 MSTORE PUSH1 0x40 SWAP1 KECCAK256 PUSH1 0x2 ADD SLOAD PUSH1 0xFF AND SWAP1 JUMP JUMPDEST PUSH1 0x40 MLOAD SWAP1 ISZERO ISZERO DUP2 MSTORE PUSH1 0x20 ADD JUMPDEST PUSH1 0x40 MLOAD DUP1 SWAP2 SUB SWAP1 RETURN JUMPDEST CALLVALUE DUP1 ISZERO PUSH2 0x162 JUMPI PUSH1 0x0 DUP1 REVERT JUMPDEST POP PUSH2 0x141 PUSH2 0x171 CALLDATASIZE PUSH1 0x4 PUSH2 0x117F JUMP JUMPDEST PUSH2 0x379 JUMP JUMPDEST CALLVALUE DUP1 ISZERO PUSH2 0x182 JUMPI PUSH1 0x0 DUP1 REVERT JUMPDEST POP PUSH1 0x1 SLOAD PUSH1 0x1 PUSH1 0x1 PUSH1 0xA0 SHL SUB AND JUMPDEST PUSH1 0x40 MLOAD PUSH1 0x1 PUSH1 0x1 PUSH1 0xA0 SHL SUB SWAP1 SWAP2 AND DUP2 MSTORE PUSH1 0x20 ADD PUSH2 0x14D JUMP JUMPDEST PUSH2 0x1BB PUSH2 0x1B6 CALLDATASIZE PUSH1 0x4 PUSH2 0x114A JUMP JUMPDEST PUSH2 0x3A9 JUMP JUMPDEST STOP JUMPDEST CALLVALUE DUP1 ISZERO PUSH2 0x1C9 JUMPI PUSH1 0x0 DUP1 REVERT JUMPDEST POP PUSH2 0x1BB PUSH2 0x1D8 CALLDATASIZE PUSH1 0x4 PUSH2 0x11AB JUMP JUMPDEST PUSH2 0x5F5 JUMP JUMPDEST CALLVALUE DUP1 ISZERO PUSH2 0x1E9 JUMPI PUSH1 0x0 DUP1 REVERT JUMPDEST POP PUSH2 0x20A PUSH2 0x1F8 CALLDATASIZE PUSH1 0x4 PUSH2 0x114A JUMP JUMPDEST PUSH1 0x0 SWAP1 DUP2 MSTORE PUSH1 0x3 PUSH1 0x20 MSTORE PUSH1 0x40 SWAP1 KECCAK256 SLOAD SWAP1 JUMP JUMPDEST PUSH1 0x40 MLOAD SWAP1 DUP2 MSTORE PUSH1 0x20 ADD PUSH2 0x14D JUMP JUMPDEST CALLVALUE DUP1 ISZERO PUSH2 0x224 JUMPI PUSH1 0x0 DUP1 REVERT JUMPDEST POP SELFBALANCE PUSH2 0x20A JUMP JUMPDEST CALLVALUE DUP1 ISZERO PUSH2 0x237 JUMPI PUSH1 0x0 DUP1 REVERT JUMPDEST POP PUSH2 0x1BB PUSH2 0x246 CALLDATASIZE PUSH1 0x4 PUSH2 0x114A JUMP JUMPDEST PUSH2 0x6B9 JUMP JUMPDEST CALLVALUE DUP1 ISZERO PUSH2 0x257 JUMPI PUSH1 0x0 DUP1 REVERT JUMPDEST POP PUSH1 0x1 SLOAD PUSH2 0x190 SWAP1 PUSH1 0x1 PUSH1 0x1 PUSH1 0xA0 SHL SUB AND DUP2 JUMP JUMPDEST CALLVALUE DUP1 ISZERO PUSH2 0x277 JUMPI PUSH1 0x0 DUP1 REVERT JUMPDEST POP PUSH2 0x28B PUSH2 0x286 CALLDATASIZE PUSH1 0x4 PUSH2 0x114A JUMP JUMPDEST PUSH2 0x8BC JUMP JUMPDEST PUSH1 0x40 MLOAD PUSH2 0x14D SWAP5 SWAP4 SWAP3 SWAP2 SWAP1 PUSH2 0x1211 JUMP JUMPDEST CALLVALUE DUP1 ISZERO PUSH2 0x2A7 JUMPI PUSH1 0x0 DUP1 REVERT JUMPDEST POP PUSH1 0x0 SLOAD PUSH2 0x190 SWAP1 PUSH1 0x1 PUSH1 0x1 PUSH1 0xA0 SHL SUB AND DUP2 JUMP JUMPDEST CALLVALUE DUP1 ISZERO PUSH2 0x2C7 JUMPI PUSH1 0x0 DUP1 REVERT JUMPDEST POP PUSH2 0x2DB PUSH2 0x2D6 CALLDATASIZE PUSH1 0x4 PUSH2 0x114A JUMP JUMPDEST PUSH2 0x965 JUMP JUMPDEST PUSH1 0x40 MLOAD PUSH2 0x14D SWAP2 SWAP1 PUSH2 0x1242 JUMP JUMPDEST CALLVALUE DUP1 ISZERO PUSH2 0x2F4 JUMPI PUSH1 0x0 DUP1 REVERT JUMPDEST POP PUSH2 0x20A PUSH2 0x303 CALLDATASIZE PUSH1 0x4 PUSH2 0x114A JUMP JUMPDEST PUSH2 0x9D1 JUMP JUMPDEST CALLVALUE DUP1 ISZERO PUSH2 0x314 JUMPI PUSH1 0x0 DUP1 REVERT JUMPDEST POP PUSH2 0x1BB PUSH2 0x323 CALLDATASIZE PUSH1 0x4 PUSH2 0x126B JUMP JUMPDEST PUSH2 0x9F3 JUMP JUMPDEST CALLVALUE DUP1 ISZERO PUSH2 0x334 JUMPI PUSH1 0x0 DUP1 REVERT JUMPDEST POP PUSH2 0x1BB PUSH2 0x343 CALLDATASIZE PUSH1 0x4 PUSH2 0x11AB JUMP JUMPDEST PUSH2 0x1088 JUMP JUMPDEST CALLVALUE DUP1 ISZERO PUSH2 0x354 JUMPI PUSH1 0x0 DUP1 REVERT JUMPDEST POP PUSH2 0x20A PUSH1 0x4 DUP2 JUMP JUMPDEST CALLVALUE DUP1 ISZERO PUSH2 0x369 JUMPI PUSH1 0x0 DUP1 REVERT JUMPDEST POP PUSH2 0x20A PUSH8 0xDE0B6B3A7640000 DUP2 JUMP JUMPDEST PUSH1 0x0 DUP3 DUP2 MSTORE PUSH1 0x3 PUSH1 0x20 SWAP1 DUP2 MSTORE PUSH1 0x40 DUP1 DUP4 KECCAK256 PUSH1 0x1 PUSH1 0x1 PUSH1 0xA0 SHL SUB DUP6 AND DUP5 MSTORE PUSH1 0x1 ADD SWAP1 SWAP2 MSTORE SWAP1 KECCAK256 SLOAD PUSH1 0xFF AND JUMPDEST SWAP3 SWAP2 POP POP JUMP JUMPDEST PUSH1 0x2 DUP1 SLOAD SUB PUSH2 0x3D3 JUMPI PUSH1 0x40 MLOAD PUSH3 0x461BCD PUSH1 0xE5 SHL DUP2 MSTORE PUSH1 0x4 ADD PUSH2 0x3CA SWAP1 PUSH2 0x12FC JUMP JUMPDEST PUSH1 0x40 MLOAD DUP1 SWAP2 SUB SWAP1 REVERT JUMPDEST PUSH1 0x2 DUP1 SSTORE PUSH1 0x0 DUP2 DUP2 MSTORE PUSH1 0x3 PUSH1 0x20 MSTORE PUSH1 0x40 SWAP1 KECCAK256 CALLVALUE PUSH8 0xDE0B6B3A7640000 EQ PUSH2 0x432 JUMPI PUSH1 0x40 MLOAD PUSH3 0x461BCD PUSH1 0xE5 SHL DUP2 MSTORE PUSH1 0x20 PUSH1 0x4 DUP3 ADD MSTORE PUSH1 0x13 PUSH1 0x24 DUP3 ADD MSTORE PUSH19 0x496E636F727265637420656E74727920666565 PUSH1 0x68 SHL PUSH1 0x44 DUP3 ADD MSTORE PUSH1 0x64 ADD PUSH2 0x3CA JUMP JUMPDEST PUSH1 0x2 DUP2 ADD SLOAD PUSH1 0xFF AND ISZERO PUSH2 0x480 JUMPI PUSH1 0x40 MLOAD PUSH3 0x461BCD PUSH1 0xE5 SHL DUP2 MSTORE PUSH1 0x20 PUSH1 0x4 DUP3 ADD MSTORE PUSH1 0x16 PUSH1 0x24 DUP3 ADD MSTORE PUSH22 0x11D85B5948185B1C9958591E4818DBDB5C1B195D1959 PUSH1 0x52 SHL PUSH1 0x44 DUP3 ADD MSTORE PUSH1 0x64 ADD PUSH2 0x3CA JUMP JUMPDEST DUP1 SLOAD PUSH1 0x4 GT PUSH2 0x4C0 JUMPI PUSH1 0x40 MLOAD PUSH3 0x461BCD PUSH1 0xE5 SHL DUP2 MSTORE PUSH1 0x20 PUSH1 0x4 DUP3 ADD MSTORE PUSH1 0xC PUSH1 0x24 DUP3 ADD MSTORE PUSH12 0x11D85B59481A5CC8199D5B1B PUSH1 0xA2 SHL PUSH1 0x44 DUP3 ADD MSTORE PUSH1 0x64 ADD PUSH2 0x3CA JUMP JUMPDEST CALLER PUSH1 0x0 SWAP1 DUP2 MSTORE PUSH1 0x1 DUP3 ADD PUSH1 0x20 MSTORE PUSH1 0x40 SWAP1 KECCAK256 SLOAD PUSH1 0xFF AND ISZERO PUSH2 0x522 JUMPI PUSH1 0x40 MLOAD PUSH3 0x461BCD PUSH1 0xE5 SHL DUP2 MSTORE PUSH1 0x20 PUSH1 0x4 DUP3 ADD MSTORE PUSH1 0x18 PUSH1 0x24 DUP3 ADD MSTORE PUSH32 0x506C6179657220616C7265616479206465706F73697465640000000000000000 PUSH1 0x44 DUP3 ADD MSTORE PUSH1 0x64 ADD PUSH2 0x3CA JUMP JUMPDEST DUP1 SLOAD PUSH1 0x1 DUP1 DUP3 ADD DUP4 SSTORE PUSH1 0x0 DUP4 DUP2 MSTORE PUSH1 0x20 DUP1 DUP3 KECCAK256 SWAP1 SWAP4 ADD DUP1 SLOAD PUSH1 0x1 PUSH1 0x1 PUSH1 0xA0 SHL SUB NOT AND CALLER SWAP1 DUP2 OR SWAP1 SWAP2 SSTORE DUP1 DUP3 MSTORE DUP3 DUP6 ADD DUP5 MSTORE PUSH1 0x40 SWAP2 DUP3 SWAP1 KECCAK256 DUP1 SLOAD PUSH1 0xFF NOT AND SWAP1 SWAP4 OR SWAP1 SWAP3 SSTORE DUP4 SLOAD DUP2 MLOAD CALLVALUE DUP2 MSTORE SWAP4 DUP5 ADD MSTORE SWAP1 SWAP2 DUP5 SWAP2 PUSH32 0x56B037FC6B9C847F767384424EBF0862E14B059D33D341F3BD331409F82010E3 SWAP2 ADD PUSH1 0x40 MLOAD DUP1 SWAP2 SUB SWAP1 LOG3 DUP1 SLOAD PUSH1 0x3 NOT ADD PUSH2 0x5EC JUMPI DUP2 PUSH32 0x67656635A63665E7256662905D7205219DF6A6151C83B54724B3BAD7CCF1D187 PUSH8 0x3782DACE9D900000 PUSH1 0x40 MLOAD PUSH2 0x5E3 SWAP2 DUP2 MSTORE PUSH1 0x20 ADD SWAP1 JUMP JUMPDEST PUSH1 0x40 MLOAD DUP1 SWAP2 SUB SWAP1 LOG2 JUMPDEST POP POP PUSH1 0x1 PUSH1 0x2 SSTORE JUMP JUMPDEST PUSH1 0x0 SLOAD PUSH1 0x1 PUSH1 0x1 PUSH1 0xA0 SHL SUB AND CALLER EQ PUSH2 0x61F JUMPI PUSH1 0x40 MLOAD PUSH3 0x461BCD PUSH1 0xE5 SHL DUP2 MSTORE PUSH1 0x4 ADD PUSH2 0x3CA SWAP1 PUSH2 0x1324 JUMP JUMPDEST PUSH1 0x1 PUSH1 0x1 PUSH1 0xA0 SHL SUB DUP2 AND PUSH2 0x667 JUMPI PUSH1 0x40 MLOAD PUSH3 0x461BCD PUSH1 0xE5 SHL DUP2 MSTORE PUSH1 0x20 PUSH1 0x4 DUP3 ADD MSTORE PUSH1 0xF PUSH1 0x24 DUP3 ADD MSTORE PUSH15 0x496E76616C69642061646472657373 PUSH1 0x88 SHL PUSH1 0x44 DUP3 ADD MSTORE PUSH1 0x64 ADD PUSH2 0x3CA JUMP JUMPDEST PUSH1 0x1 DUP1 SLOAD PUSH1 0x1 PUSH1 0x1 PUSH1 0xA0 SHL SUB DUP4 DUP2 AND PUSH1 0x1 PUSH1 0x1 PUSH1 0xA0 SHL SUB NOT DUP4 AND DUP2 OR SWAP1 SWAP4 SSTORE PUSH1 0x40 MLOAD SWAP2 AND SWAP2 SWAP1 DUP3 SWAP1 PUSH32 0x6B689C4C929A6FDD19FC8A3715997C5112F97F33757DA4832BF0AB141C55ACCD SWAP1 PUSH1 0x0 SWAP1 LOG3 POP POP JUMP JUMPDEST PUSH1 0x0 SLOAD PUSH1 0x1 PUSH1 0x1 PUSH1 0xA0 SHL SUB AND CALLER EQ PUSH2 0x6E3 JUMPI PUSH1 0x40 MLOAD PUSH3 0x461BCD PUSH1 0xE5 SHL DUP2 MSTORE PUSH1 0x4 ADD PUSH2 0x3CA SWAP1 PUSH2 0x1324 JUMP JUMPDEST PUSH1 0x2 DUP1 SLOAD SUB PUSH2 0x704 JUMPI PUSH1 0x40 MLOAD PUSH3 0x461BCD PUSH1 0xE5 SHL DUP2 MSTORE PUSH1 0x4 ADD PUSH2 0x3CA SWAP1 PUSH2 0x12FC JUMP JUMPDEST PUSH1 0x2 DUP1 SSTORE PUSH1 0x0 DUP2 DUP2 MSTORE PUSH1 0x3 PUSH1 0x20 MSTORE PUSH1 0x40 SWAP1 KECCAK256 DUP1 SLOAD PUSH2 0x759 JUMPI PUSH1 0x40 MLOAD PUSH3 0x461BCD PUSH1 0xE5 SHL DUP2 MSTORE PUSH1 0x20 PUSH1 0x4 DUP3 ADD MSTORE PUSH1 0x12 PUSH1 0x24 DUP3 ADD MSTORE PUSH18 0x4E6F20706C617965727320696E2067616D65 PUSH1 0x70 SHL PUSH1 0x44 DUP3 ADD MSTORE PUSH1 0x64 ADD PUSH2 0x3CA JUMP JUMPDEST PUSH1 0x2 DUP2 ADD SLOAD PUSH1 0xFF AND ISZERO PUSH2 0x7AE JUMPI PUSH1 0x40 MLOAD PUSH3 0x461BCD PUSH1 0xE5 SHL DUP2 MSTORE PUSH1 0x20 PUSH1 0x4 DUP3 ADD MSTORE PUSH1 0x1A PUSH1 0x24 DUP3 ADD MSTORE PUSH32 0x5072697A657320616C7265616479207472616E73666572726564000000000000 PUSH1 0x44 DUP3 ADD MSTORE PUSH1 0x64 ADD PUSH2 0x3CA JUMP JUMPDEST DUP1 SLOAD PUSH1 0x2 DUP3 ADD DUP1 SLOAD PUSH1 0xFF NOT AND PUSH1 0x1 OR SWAP1 SSTORE PUSH1 0x0 JUMPDEST DUP2 DUP2 LT ISZERO PUSH2 0x8B1 JUMPI PUSH1 0x0 DUP4 PUSH1 0x0 ADD DUP3 DUP2 SLOAD DUP2 LT PUSH2 0x7E1 JUMPI PUSH2 0x7E1 PUSH2 0x1348 JUMP JUMPDEST PUSH1 0x0 SWAP2 DUP3 MSTORE PUSH1 0x20 DUP3 KECCAK256 ADD SLOAD PUSH1 0x40 MLOAD PUSH1 0x1 PUSH1 0x1 PUSH1 0xA0 SHL SUB SWAP1 SWAP2 AND SWAP3 POP DUP3 SWAP1 PUSH8 0xDE0B6B3A7640000 SWAP1 DUP4 DUP2 DUP2 DUP2 DUP6 DUP8 GAS CALL SWAP3 POP POP POP RETURNDATASIZE DUP1 PUSH1 0x0 DUP2 EQ PUSH2 0x840 JUMPI PUSH1 0x40 MLOAD SWAP2 POP PUSH1 0x1F NOT PUSH1 0x3F RETURNDATASIZE ADD AND DUP3 ADD PUSH1 0x40 MSTORE RETURNDATASIZE DUP3 MSTORE RETURNDATASIZE PUSH1 0x0 PUSH1 0x20 DUP5 ADD RETURNDATACOPY PUSH2 0x845 JUMP JUMPDEST PUSH1 0x60 SWAP2 POP JUMPDEST POP POP SWAP1 POP DUP1 ISZERO PUSH2 0x89C JUMPI DUP2 PUSH1 0x1 PUSH1 0x1 PUSH1 0xA0 SHL SUB AND DUP7 PUSH32 0x668EDE93DE2924E11E5554EA95DD0839A40DDF58C1F04B209FDE0DC8298A75C8 PUSH8 0xDE0B6B3A7640000 PUSH1 0x40 MLOAD PUSH2 0x893 SWAP2 DUP2 MSTORE PUSH1 0x20 ADD SWAP1 JUMP JUMPDEST PUSH1 0x40 MLOAD DUP1 SWAP2 SUB SWAP1 LOG3 JUMPDEST POP POP DUP1 DUP1 PUSH2 0x8A9 SWAP1 PUSH2 0x1374 JUMP JUMPDEST SWAP2 POP POP PUSH2 0x7C2 JUMP JUMPDEST POP POP PUSH1 0x1 PUSH1 0x2 SSTORE POP POP JUMP JUMPDEST PUSH1 0x0 DUP2 DUP2 MSTORE PUSH1 0x3 PUSH1 0x20 MSTORE PUSH1 0x40 DUP2 KECCAK256 DUP1 SLOAD PUSH1 0x60 SWAP3 SWAP2 DUP3 SWAP2 DUP3 SWAP2 SWAP1 DUP3 SWAP1 PUSH2 0x8EA SWAP1 PUSH8 0xDE0B6B3A7640000 SWAP1 PUSH2 0x138D JUMP JUMPDEST PUSH1 0x2 DUP4 ADD SLOAD DUP4 SLOAD PUSH1 0x40 DUP1 MLOAD PUSH1 0x20 DUP1 DUP5 MUL DUP3 ADD DUP2 ADD SWAP1 SWAP3 MSTORE DUP3 DUP2 MSTORE SWAP4 SWAP5 POP DUP6 SWAP4 DUP6 SWAP4 PUSH1 0xFF AND SWAP3 DUP4 SWAP3 DUP7 SWAP2 SWAP1 DUP4 ADD DUP3 DUP3 DUP1 ISZERO PUSH2 0x94D JUMPI PUSH1 0x20 MUL DUP3 ADD SWAP2 SWAP1 PUSH1 0x0 MSTORE PUSH1 0x20 PUSH1 0x0 KECCAK256 SWAP1 JUMPDEST DUP2 SLOAD PUSH1 0x1 PUSH1 0x1 PUSH1 0xA0 SHL SUB AND DUP2 MSTORE PUSH1 0x1 SWAP1 SWAP2 ADD SWAP1 PUSH1 0x20 ADD DUP1 DUP4 GT PUSH2 0x92F JUMPI JUMPDEST POP POP POP POP POP SWAP4 POP SWAP6 POP SWAP6 POP SWAP6 POP SWAP6 POP POP POP SWAP2 SWAP4 POP SWAP2 SWAP4 JUMP JUMPDEST PUSH1 0x0 DUP2 DUP2 MSTORE PUSH1 0x3 PUSH1 0x20 SWAP1 DUP2 MSTORE PUSH1 0x40 SWAP2 DUP3 SWAP1 KECCAK256 DUP1 SLOAD DUP4 MLOAD DUP2 DUP5 MUL DUP2 ADD DUP5 ADD SWAP1 SWAP5 MSTORE DUP1 DUP5 MSTORE PUSH1 0x60 SWAP4 SWAP3 DUP4 ADD DUP3 DUP3 DUP1 ISZERO PUSH2 0x9C5 JUMPI PUSH1 0x20 MUL DUP3 ADD SWAP2 SWAP1 PUSH1 0x0 MSTORE PUSH1 0x20 PUSH1 0x0 KECCAK256 SWAP1 JUMPDEST DUP2 SLOAD PUSH1 0x1 PUSH1 0x1 PUSH1 0xA0 SHL SUB AND DUP2 MSTORE PUSH1 0x1 SWAP1 SWAP2 ADD SWAP1 PUSH1 0x20 ADD DUP1 DUP4 GT PUSH2 0x9A7 JUMPI JUMPDEST POP POP POP POP POP SWAP1 POP SWAP2 SWAP1 POP JUMP JUMPDEST PUSH1 0x0 DUP2 DUP2 MSTORE PUSH1 0x3 PUSH1 0x20 MSTORE PUSH1 0x40 DUP2 KECCAK256 SLOAD PUSH2 0x3A3 SWAP1 PUSH8 0xDE0B6B3A7640000 SWAP1 PUSH2 0x138D JUMP JUMPDEST PUSH1 0x0 SLOAD PUSH1 0x1 PUSH1 0x1 PUSH1 0xA0 SHL SUB AND CALLER EQ PUSH2 0xA1D JUMPI PUSH1 0x40 MLOAD PUSH3 0x461BCD PUSH1 0xE5 SHL DUP2 MSTORE PUSH1 0x4 ADD PUSH2 0x3CA SWAP1 PUSH2 0x1324 JUMP JUMPDEST PUSH1 0x2 DUP1 SLOAD SUB PUSH2 0xA3E JUMPI PUSH1 0x40 MLOAD PUSH3 0x461BCD PUSH1 0xE5 SHL DUP2 MSTORE PUSH1 0x4 ADD PUSH2 0x3CA SWAP1 PUSH2 0x12FC JUMP JUMPDEST PUSH1 0x2 DUP1 SSTORE PUSH1 0x0 DUP3 DUP2 MSTORE PUSH1 0x3 PUSH1 0x20 MSTORE PUSH1 0x40 SWAP1 KECCAK256 DUP1 SLOAD PUSH1 0x4 EQ PUSH2 0xAA1 JUMPI PUSH1 0x40 MLOAD PUSH3 0x461BCD PUSH1 0xE5 SHL DUP2 MSTORE PUSH1 0x20 PUSH1 0x4 DUP3 ADD MSTORE PUSH1 0x19 PUSH1 0x24 DUP3 ADD MSTORE PUSH32 0x4E6F7420616C6C20706C6179657273206465706F736974656400000000000000 PUSH1 0x44 DUP3 ADD MSTORE PUSH1 0x64 ADD PUSH2 0x3CA JUMP JUMPDEST PUSH1 0x2 DUP2 ADD SLOAD PUSH1 0xFF AND ISZERO PUSH2 0xAF6 JUMPI PUSH1 0x40 MLOAD PUSH3 0x461BCD PUSH1 0xE5 SHL DUP2 MSTORE PUSH1 0x20 PUSH1 0x4 DUP3 ADD MSTORE PUSH1 0x1A PUSH1 0x24 DUP3 ADD MSTORE PUSH32 0x5072697A657320616C7265616479207472616E73666572726564000000000000 PUSH1 0x44 DUP3 ADD MSTORE PUSH1 0x64 ADD PUSH2 0x3CA JUMP JUMPDEST DUP2 MLOAD PUSH1 0x20 DUP1 DUP5 ADD MLOAD PUSH1 0x40 DUP1 DUP7 ADD MLOAD PUSH1 0x60 DUP8 ADD MLOAD PUSH1 0x1 PUSH1 0x1 PUSH1 0xA0 SHL SUB DUP7 AND PUSH1 0x0 SWAP1 DUP2 MSTORE PUSH1 0x1 DUP9 ADD SWAP1 SWAP6 MSTORE SWAP2 SWAP1 SWAP4 KECCAK256 SLOAD SWAP2 SWAP3 SWAP2 PUSH1 0xFF AND PUSH2 0xB6B JUMPI PUSH1 0x40 MLOAD PUSH3 0x461BCD PUSH1 0xE5 SHL DUP2 MSTORE PUSH1 0x20 PUSH1 0x4 DUP3 ADD MSTORE PUSH1 0x12 PUSH1 0x24 DUP3 ADD MSTORE PUSH18 0x57696E6E6572206E6F7420696E2067616D65 PUSH1 0x70 SHL PUSH1 0x44 DUP3 ADD MSTORE PUSH1 0x64 ADD PUSH2 0x3CA JUMP JUMPDEST PUSH1 0x1 PUSH1 0x1 PUSH1 0xA0 SHL SUB DUP4 AND PUSH1 0x0 SWAP1 DUP2 MSTORE PUSH1 0x1 DUP7 ADD PUSH1 0x20 MSTORE PUSH1 0x40 SWAP1 KECCAK256 SLOAD PUSH1 0xFF AND PUSH2 0xBD5 JUMPI PUSH1 0x40 MLOAD PUSH3 0x461BCD PUSH1 0xE5 SHL DUP2 MSTORE PUSH1 0x20 PUSH1 0x4 DUP3 ADD MSTORE PUSH1 0x18 PUSH1 0x24 DUP3 ADD MSTORE PUSH32 0x46697273742072756E6E6572206E6F7420696E2067616D650000000000000000 PUSH1 0x44 DUP3 ADD MSTORE PUSH1 0x64 ADD PUSH2 0x3CA JUMP JUMPDEST PUSH1 0x1 PUSH1 0x1 PUSH1 0xA0 SHL SUB DUP3 AND PUSH1 0x0 SWAP1 DUP2 MSTORE PUSH1 0x1 DUP7 ADD PUSH1 0x20 MSTORE PUSH1 0x40 SWAP1 KECCAK256 SLOAD PUSH1 0xFF AND PUSH2 0xC3F JUMPI PUSH1 0x40 MLOAD PUSH3 0x461BCD PUSH1 0xE5 SHL DUP2 MSTORE PUSH1 0x20 PUSH1 0x4 DUP3 ADD MSTORE PUSH1 0x19 PUSH1 0x24 DUP3 ADD MSTORE PUSH32 0x5365636F6E642072756E6E6572206E6F7420696E2067616D6500000000000000 PUSH1 0x44 DUP3 ADD MSTORE PUSH1 0x64 ADD PUSH2 0x3CA JUMP JUMPDEST PUSH1 0x1 PUSH1 0x1 PUSH1 0xA0 SHL SUB DUP2 AND PUSH1 0x0 SWAP1 DUP2 MSTORE PUSH1 0x1 DUP7 ADD PUSH1 0x20 MSTORE PUSH1 0x40 SWAP1 KECCAK256 SLOAD PUSH1 0xFF AND PUSH2 0xCA9 JUMPI PUSH1 0x40 MLOAD PUSH3 0x461BCD PUSH1 0xE5 SHL DUP2 MSTORE PUSH1 0x20 PUSH1 0x4 DUP3 ADD MSTORE PUSH1 0x17 PUSH1 0x24 DUP3 ADD MSTORE PUSH32 0x4C61737420706C61796572206E6F7420696E2067616D65000000000000000000 PUSH1 0x44 DUP3 ADD MSTORE PUSH1 0x64 ADD PUSH2 0x3CA JUMP JUMPDEST DUP3 PUSH1 0x1 PUSH1 0x1 PUSH1 0xA0 SHL SUB AND DUP5 PUSH1 0x1 PUSH1 0x1 PUSH1 0xA0 SHL SUB AND EQ ISZERO DUP1 ISZERO PUSH2 0xCDD JUMPI POP DUP2 PUSH1 0x1 PUSH1 0x1 PUSH1 0xA0 SHL SUB AND DUP5 PUSH1 0x1 PUSH1 0x1 PUSH1 0xA0 SHL SUB AND EQ ISZERO JUMPDEST DUP1 ISZERO PUSH2 0xCFB JUMPI POP DUP1 PUSH1 0x1 PUSH1 0x1 PUSH1 0xA0 SHL SUB AND DUP5 PUSH1 0x1 PUSH1 0x1 PUSH1 0xA0 SHL SUB AND EQ ISZERO JUMPDEST DUP1 ISZERO PUSH2 0xD19 JUMPI POP DUP2 PUSH1 0x1 PUSH1 0x1 PUSH1 0xA0 SHL SUB AND DUP4 PUSH1 0x1 PUSH1 0x1 PUSH1 0xA0 SHL SUB AND EQ ISZERO JUMPDEST DUP1 ISZERO PUSH2 0xD37 JUMPI POP DUP1 PUSH1 0x1 PUSH1 0x1 PUSH1 0xA0 SHL SUB AND DUP4 PUSH1 0x1 PUSH1 0x1 PUSH1 0xA0 SHL SUB AND EQ ISZERO JUMPDEST DUP1 ISZERO PUSH2 0xD55 JUMPI POP DUP1 PUSH1 0x1 PUSH1 0x1 PUSH1 0xA0 SHL SUB AND DUP3 PUSH1 0x1 PUSH1 0x1 PUSH1 0xA0 SHL SUB AND EQ ISZERO JUMPDEST PUSH2 0xD9A JUMPI PUSH1 0x40 MLOAD PUSH3 0x461BCD PUSH1 0xE5 SHL DUP2 MSTORE PUSH1 0x20 PUSH1 0x4 DUP3 ADD MSTORE PUSH1 0x16 PUSH1 0x24 DUP3 ADD MSTORE PUSH22 0x506C6179657273206D75737420626520756E69717565 PUSH1 0x50 SHL PUSH1 0x44 DUP3 ADD MSTORE PUSH1 0x64 ADD PUSH2 0x3CA JUMP JUMPDEST PUSH1 0x2 DUP6 ADD DUP1 SLOAD PUSH1 0xFF NOT AND PUSH1 0x1 OR SWAP1 SSTORE PUSH1 0x40 MLOAD PUSH1 0x0 SWAP1 DUP2 SWAP1 PUSH1 0x1 PUSH1 0x1 PUSH1 0xA0 SHL SUB DUP8 AND SWAP1 PUSH8 0x1BC16D674EC80000 SWAP1 DUP4 DUP2 DUP2 DUP2 DUP6 DUP8 GAS CALL SWAP3 POP POP POP RETURNDATASIZE DUP1 PUSH1 0x0 DUP2 EQ PUSH2 0xDFE JUMPI PUSH1 0x40 MLOAD SWAP2 POP PUSH1 0x1F NOT PUSH1 0x3F RETURNDATASIZE ADD AND DUP3 ADD PUSH1 0x40 MSTORE RETURNDATASIZE DUP3 MSTORE RETURNDATASIZE PUSH1 0x0 PUSH1 0x20 DUP5 ADD RETURNDATACOPY PUSH2 0xE03 JUMP JUMPDEST PUSH1 0x60 SWAP2 POP JUMPDEST POP POP SWAP1 POP DUP1 ISZERO PUSH2 0xE1B JUMPI PUSH8 0x1BC16D674EC80000 DUP3 ADD SWAP2 POP JUMPDEST PUSH1 0x0 DUP6 PUSH1 0x1 PUSH1 0x1 PUSH1 0xA0 SHL SUB AND PUSH8 0xDE0B6B3A7640000 PUSH1 0x40 MLOAD PUSH1 0x0 PUSH1 0x40 MLOAD DUP1 DUP4 SUB DUP2 DUP6 DUP8 GAS CALL SWAP3 POP POP POP RETURNDATASIZE DUP1 PUSH1 0x0 DUP2 EQ PUSH2 0xE70 JUMPI PUSH1 0x40 MLOAD SWAP2 POP PUSH1 0x1F NOT PUSH1 0x3F RETURNDATASIZE ADD AND DUP3 ADD PUSH1 0x40 MSTORE RETURNDATASIZE DUP3 MSTORE RETURNDATASIZE PUSH1 0x0 PUSH1 0x20 DUP5 ADD RETURNDATACOPY PUSH2 0xE75 JUMP JUMPDEST PUSH1 0x60 SWAP2 POP JUMPDEST POP POP SWAP1 POP DUP1 ISZERO PUSH2 0xE8D JUMPI PUSH8 0xDE0B6B3A7640000 DUP4 ADD SWAP3 POP JUMPDEST PUSH1 0x0 DUP6 PUSH1 0x1 PUSH1 0x1 PUSH1 0xA0 SHL SUB AND PUSH8 0x6F05B59D3B20000 PUSH1 0x40 MLOAD PUSH1 0x0 PUSH1 0x40 MLOAD DUP1 DUP4 SUB DUP2 DUP6 DUP8 GAS CALL SWAP3 POP POP POP RETURNDATASIZE DUP1 PUSH1 0x0 DUP2 EQ PUSH2 0xEE2 JUMPI PUSH1 0x40 MLOAD SWAP2 POP PUSH1 0x1F NOT PUSH1 0x3F RETURNDATASIZE ADD AND DUP3 ADD PUSH1 0x40 MSTORE RETURNDATASIZE DUP3 MSTORE RETURNDATASIZE PUSH1 0x0 PUSH1 0x20 DUP5 ADD RETURNDATACOPY PUSH2 0xEE7 JUMP JUMPDEST PUSH1 0x60 SWAP2 POP JUMPDEST POP POP SWAP1 POP DUP1 ISZERO PUSH2 0xEFF JUMPI PUSH8 0x6F05B59D3B20000 DUP5 ADD SWAP4 POP JUMPDEST PUSH8 0x3782DACE9D900000 DUP5 DUP2 SUB SWAP1 DUP6 EQ PUSH2 0xFB7 JUMPI PUSH1 0x1 SLOAD PUSH1 0x40 MLOAD PUSH1 0x0 SWAP2 PUSH1 0x1 PUSH1 0x1 PUSH1 0xA0 SHL SUB AND SWAP1 DUP4 SWAP1 DUP4 DUP2 DUP2 DUP2 DUP6 DUP8 GAS CALL SWAP3 POP POP POP RETURNDATASIZE DUP1 PUSH1 0x0 DUP2 EQ PUSH2 0xF5F JUMPI PUSH1 0x40 MLOAD SWAP2 POP PUSH1 0x1F NOT PUSH1 0x3F RETURNDATASIZE ADD AND DUP3 ADD PUSH1 0x40 MSTORE RETURNDATASIZE DUP3 MSTORE RETURNDATASIZE PUSH1 0x0 PUSH1 0x20 DUP5 ADD RETURNDATACOPY PUSH2 0xF64 JUMP JUMPDEST PUSH1 0x60 SWAP2 POP JUMPDEST POP POP SWAP1 POP DUP1 PUSH2 0xFB5 JUMPI PUSH1 0x40 MLOAD PUSH3 0x461BCD PUSH1 0xE5 SHL DUP2 MSTORE PUSH1 0x20 PUSH1 0x4 DUP3 ADD MSTORE PUSH1 0x17 PUSH1 0x24 DUP3 ADD MSTORE PUSH32 0x43726561746F72207472616E73666572206661696C6564000000000000000000 PUSH1 0x44 DUP3 ADD MSTORE PUSH1 0x64 ADD PUSH2 0x3CA JUMP JUMPDEST POP JUMPDEST DUP12 PUSH32 0xD8800017132820FA3F7D99DA421E8AF652B036231C04BD11DC0AA593AAB3727D DUP11 DUP7 PUSH2 0xFE6 JUMPI PUSH1 0x0 PUSH2 0xFF0 JUMP JUMPDEST PUSH8 0x1BC16D674EC80000 JUMPDEST DUP12 DUP8 PUSH2 0xFFD JUMPI PUSH1 0x0 PUSH2 0x1007 JUMP JUMPDEST PUSH8 0xDE0B6B3A7640000 JUMPDEST DUP13 DUP9 PUSH2 0x1014 JUMPI PUSH1 0x0 PUSH2 0x101E JUMP JUMPDEST PUSH8 0x6F05B59D3B20000 JUMPDEST PUSH1 0x40 DUP1 MLOAD PUSH1 0x1 PUSH1 0x1 PUSH1 0xA0 SHL SUB SWAP8 DUP9 AND DUP2 MSTORE PUSH1 0x20 DUP2 ADD SWAP7 SWAP1 SWAP7 MSTORE SWAP4 DUP7 AND DUP6 DUP6 ADD MSTORE PUSH1 0x60 DUP6 ADD SWAP3 SWAP1 SWAP3 MSTORE DUP5 AND PUSH1 0x80 DUP5 ADD MSTORE PUSH1 0xA0 DUP4 ADD MSTORE SWAP2 DUP11 AND PUSH1 0xC0 DUP3 ADD MSTORE PUSH1 0x0 PUSH1 0xE0 DUP3 ADD MSTORE PUSH2 0x100 DUP2 ADD DUP6 SWAP1 MSTORE SWAP1 MLOAD SWAP1 DUP2 SWAP1 SUB PUSH2 0x120 ADD SWAP1 LOG2 POP POP PUSH1 0x1 PUSH1 0x2 SSTORE POP POP POP POP POP POP POP POP POP POP JUMP JUMPDEST PUSH1 0x0 SLOAD PUSH1 0x1 PUSH1 0x1 PUSH1 0xA0 SHL SUB AND CALLER EQ PUSH2 0x10B2 JUMPI PUSH1 0x40 MLOAD PUSH3 0x461BCD PUSH1 0xE5 SHL DUP2 MSTORE PUSH1 0x4 ADD PUSH2 0x3CA SWAP1 PUSH2 0x1324 JUMP JUMPDEST PUSH1 0x1 PUSH1 0x1 PUSH1 0xA0 SHL SUB DUP2 AND PUSH2 0x10FA JUMPI PUSH1 0x40 MLOAD PUSH3 0x461BCD PUSH1 0xE5 SHL DUP2 MSTORE PUSH1 0x20 PUSH1 0x4 DUP3 ADD MSTORE PUSH1 0xF PUSH1 0x24 DUP3 ADD MSTORE PUSH15 0x496E76616C69642061646472657373 PUSH1 0x88 SHL PUSH1 0x44 DUP3 ADD MSTORE PUSH1 0x64 ADD PUSH2 0x3CA JUMP JUMPDEST PUSH1 0x0 DUP1 SLOAD PUSH1 0x1 PUSH1 0x1 PUSH1 0xA0 SHL SUB DUP4 DUP2 AND PUSH1 0x1 PUSH1 0x1 PUSH1 0xA0 SHL SUB NOT DUP4 AND DUP2 OR DUP5 SSTORE PUSH1 0x40 MLOAD SWAP2 SWAP1 SWAP3 AND SWAP3 DUP4 SWAP2 PUSH32 0x8BE0079C531659141344CD1FD0A4F28419497F9722A3DAAFE3B4186F6B6457E0 SWAP2 SWAP1 LOG3 POP POP JUMP JUMPDEST PUSH1 0x0 PUSH1 0x20 DUP3 DUP5 SUB SLT ISZERO PUSH2 0x115C JUMPI PUSH1 0x0 DUP1 REVERT JUMPDEST POP CALLDATALOAD SWAP2 SWAP1 POP JUMP JUMPDEST DUP1 CALLDATALOAD PUSH1 0x1 PUSH1 0x1 PUSH1 0xA0 SHL SUB DUP2 AND DUP2 EQ PUSH2 0x117A JUMPI PUSH1 0x0 DUP1 REVERT JUMPDEST SWAP2 SWAP1 POP JUMP JUMPDEST PUSH1 0x0 DUP1 PUSH1 0x40 DUP4 DUP6 SUB SLT ISZERO PUSH2 0x1192 JUMPI PUSH1 0x0 DUP1 REVERT JUMPDEST DUP3 CALLDATALOAD SWAP2 POP PUSH2 0x11A2 PUSH1 0x20 DUP5 ADD PUSH2 0x1163 JUMP JUMPDEST SWAP1 POP SWAP3 POP SWAP3 SWAP1 POP JUMP JUMPDEST PUSH1 0x0 PUSH1 0x20 DUP3 DUP5 SUB SLT ISZERO PUSH2 0x11BD JUMPI PUSH1 0x0 DUP1 REVERT JUMPDEST PUSH2 0x11C6 DUP3 PUSH2 0x1163 JUMP JUMPDEST SWAP4 SWAP3 POP POP POP JUMP JUMPDEST PUSH1 0x0 DUP2 MLOAD DUP1 DUP5 MSTORE PUSH1 0x20 DUP1 DUP6 ADD SWAP5 POP DUP1 DUP5 ADD PUSH1 0x0 JUMPDEST DUP4 DUP2 LT ISZERO PUSH2 0x1206 JUMPI DUP2 MLOAD PUSH1 0x1 PUSH1 0x1 PUSH1 0xA0 SHL SUB AND DUP8 MSTORE SWAP6 DUP3 ADD SWAP6 SWAP1 DUP3 ADD SWAP1 PUSH1 0x1 ADD PUSH2 0x11E1 JUMP JUMPDEST POP SWAP5 SWAP6 SWAP5 POP POP POP POP POP JUMP JUMPDEST PUSH1 0x80 DUP2 MSTORE PUSH1 0x0 PUSH2 0x1224 PUSH1 0x80 DUP4 ADD DUP8 PUSH2 0x11CD JUMP JUMPDEST PUSH1 0x20 DUP4 ADD SWAP6 SWAP1 SWAP6 MSTORE POP SWAP2 ISZERO ISZERO PUSH1 0x40 DUP4 ADD MSTORE ISZERO ISZERO PUSH1 0x60 SWAP1 SWAP2 ADD MSTORE SWAP2 SWAP1 POP JUMP JUMPDEST PUSH1 0x20 DUP2 MSTORE PUSH1 0x0 PUSH2 0x11C6 PUSH1 0x20 DUP4 ADD DUP5 PUSH2 0x11CD JUMP JUMPDEST PUSH4 0x4E487B71 PUSH1 0xE0 SHL PUSH1 0x0 MSTORE PUSH1 0x41 PUSH1 0x4 MSTORE PUSH1 0x24 PUSH1 0x0 REVERT JUMPDEST PUSH1 0x0 DUP1 PUSH1 0xA0 DUP4 DUP6 SUB SLT ISZERO PUSH2 0x127E JUMPI PUSH1 0x0 DUP1 REVERT JUMPDEST DUP3 CALLDATALOAD SWAP2 POP PUSH1 0x20 DUP5 PUSH1 0x3F DUP6 ADD SLT PUSH2 0x1293 JUMPI PUSH1 0x0 DUP1 REVERT JUMPDEST PUSH1 0x40 MLOAD PUSH1 0x80 DUP2 ADD DUP2 DUP2 LT PUSH8 0xFFFFFFFFFFFFFFFF DUP3 GT OR ISZERO PUSH2 0x12B6 JUMPI PUSH2 0x12B6 PUSH2 0x1255 JUMP JUMPDEST PUSH1 0x40 MSTORE DUP1 PUSH1 0xA0 DUP7 ADD DUP8 DUP2 GT ISZERO PUSH2 0x12CB JUMPI PUSH1 0x0 DUP1 REVERT JUMPDEST DUP4 DUP8 ADD JUMPDEST DUP2 DUP2 LT ISZERO PUSH2 0x12ED JUMPI PUSH2 0x12E0 DUP2 PUSH2 0x1163 JUMP JUMPDEST DUP4 MSTORE SWAP2 DUP5 ADD SWAP2 DUP5 ADD PUSH2 0x12CF JUMP JUMPDEST POP POP POP DUP1 SWAP3 POP POP POP SWAP3 POP SWAP3 SWAP1 POP JUMP JUMPDEST PUSH1 0x20 DUP1 DUP3 MSTORE PUSH1 0xE SWAP1 DUP3 ADD MSTORE PUSH14 0x1499595B9D1C985B9D0818D85B1B PUSH1 0x92 SHL PUSH1 0x40 DUP3 ADD MSTORE PUSH1 0x60 ADD SWAP1 JUMP JUMPDEST PUSH1 0x20 DUP1 DUP3 MSTORE PUSH1 0xA SWAP1 DUP3 ADD MSTORE PUSH10 0x27B7363C9037BBB732B9 PUSH1 0xB1 SHL PUSH1 0x40 DUP3 ADD MSTORE PUSH1 0x60 ADD SWAP1 JUMP JUMPDEST PUSH4 0x4E487B71 PUSH1 0xE0 SHL PUSH1 0x0 MSTORE PUSH1 0x32 PUSH1 0x4 MSTORE PUSH1 0x24 PUSH1 0x0 REVERT JUMPDEST PUSH4 0x4E487B71 PUSH1 0xE0 SHL PUSH1 0x0 MSTORE PUSH1 0x11 PUSH1 0x4 MSTORE PUSH1 0x24 PUSH1 0x0 REVERT JUMPDEST PUSH1 0x0 PUSH1 0x1 DUP3 ADD PUSH2 0x1386 JUMPI PUSH2 0x1386 PUSH2 0x135E JUMP JUMPDEST POP PUSH1 0x1 ADD SWAP1 JUMP JUMPDEST DUP1 DUP3 MUL DUP2 ISZERO DUP3 DUP3 DIV DUP5 EQ OR PUSH2 0x3A3 JUMPI PUSH2 0x3A3 PUSH2 0x135E JUMP INVALID LOG2 PUSH5 0x6970667358 0x22 SLT KECCAK256 DUP12 BLOCKHASH 0x1F PUSH32 0x7AE628E8F78D4F46D79D1B09EFC82826C9FBEAD574B24D6E330D6F0F64736F6C PUSH4 0x43000814 STOP CALLER "},"methodIdentifiers":{"ENTRY_FEE()":"f6d361cc","TOTAL_PLAYERS()":"f6912f62","creatorWallet()":"7cdc65f2","emergencyWithdraw(bytes32)":"75870d65","getContractBalance()":"6f9fb98a","getCreatorWallet()":"296d19a8","getGameDetails(bytes32)":"8a1fa029","getPlayerCount(bytes32)":"604da6da","getPlayers(bytes32)":"af1e19d9","getPoolAmount(bytes32)":"b4819e12","hasPlayerDeposited(bytes32,address)":"21570d43","hasPrizesTransferred(bytes32)":"1f65db51","isGameCompleted(bytes32)":"ba69b7f7","owner()":"8da5cb5b","playerDeposit(bytes32)":"3c37015c","prizeWithdrawal(bytes32,address[4])":"d3d98901","setCreatorWallet(address)":"4940730b","transferOwnership(address)":"f2fde38b"}}}}}