{
  "_format": "hh-sol-artifact-1",
  "contractName": "MonopolyGameEscrow",
  "sourceName": "contracts/MonopolyGameEscrow.sol",
  "abi": [
    {
      "inputs": [
        {
          "internalType": "address",
          "name": "_creatorWallet",
          "type": "address"
        }
      ],
      "stateMutability": "nonpayable",
      "type": "constructor"
    },
    {
      "anonymous": false,
      "inputs": [
        {
          "indexed": true,
          "internalType": "address",
          "name": "oldWallet",
          "type": "address"
        },
        {
          "indexed": true,
          "internalType": "address",
          "name": "newWallet",
          "type": "address"
        }
      ],
      "name": "CreatorWalletUpdated",
      "type": "event"
    },
    {
      "anonymous": false,
      "inputs": [
        {
          "indexed": true,
          "internalType": "bytes32",
          "name": "gameId",
          "type": "bytes32"
        },
        {
          "indexed": true,
          "internalType": "address",
          "name": "recipient",
          "type": "address"
        },
        {
          "indexed": false,
          "internalType": "uint256",
          "name": "amount",
          "type": "uint256"
        }
      ],
      "name": "EmergencyWithdrawal",
      "type": "event"
    },
    {
      "anonymous": false,
      "inputs": [
        {
          "indexed": true,
          "internalType": "bytes32",
          "name": "gameId",
          "type": "bytes32"
        },
        {
          "indexed": false,
          "internalType": "uint256",
          "name": "totalPool",
          "type": "uint256"
        }
      ],
      "name": "GameFull",
      "type": "event"
    },
    {
      "anonymous": false,
      "inputs": [
        {
          "indexed": true,
          "internalType": "address",
          "name": "previousOwner",
          "type": "address"
        },
        {
          "indexed": true,
          "internalType": "address",
          "name": "newOwner",
          "type": "address"
        }
      ],
      "name": "OwnershipTransferred",
      "type": "event"
    },
    {
      "anonymous": false,
      "inputs": [
        {
          "indexed": true,
          "internalType": "bytes32",
          "name": "gameId",
          "type": "bytes32"
        },
        {
          "indexed": true,
          "internalType": "address",
          "name": "player",
          "type": "address"
        },
        {
          "indexed": false,
          "internalType": "uint256",
          "name": "amount",
          "type": "uint256"
        },
        {
          "indexed": false,
          "internalType": "uint256",
          "name": "currentPlayerCount",
          "type": "uint256"
        }
      ],
      "name": "PlayerDeposited",
      "type": "event"
    },
    {
      "anonymous": false,
      "inputs": [
        {
          "indexed": true,
          "internalType": "bytes32",
          "name": "gameId",
          "type": "bytes32"
        },
        {
          "indexed": false,
          "internalType": "address",
          "name": "winner",
          "type": "address"
        },
        {
          "indexed": false,
          "internalType": "uint256",
          "name": "winnerAmount",
          "type": "uint256"
        },
        {
          "indexed": false,
          "internalType": "address",
          "name": "firstRunner",
          "type": "address"
        },
        {
          "indexed": false,
          "internalType": "uint256",
          "name": "firstRunnerAmount",
          "type": "uint256"
        },
        {
          "indexed": false,
          "internalType": "address",
          "name": "secondRunner",
          "type": "address"
        },
        {
          "indexed": false,
          "internalType": "uint256",
          "name": "secondRunnerAmount",
          "type": "uint256"
        },
        {
          "indexed": false,
          "internalType": "address",
          "name": "lastPlayer",
          "type": "address"
        },
        {
          "indexed": false,
          "internalType": "uint256",
          "name": "lastPlayerAmount",
          "type": "uint256"
        },
        {
          "indexed": false,
          "internalType": "uint256",
          "name": "remainderToCreator",
          "type": "uint256"
        }
      ],
      "name": "PrizeDistributed",
      "type": "event"
    },
    {
      "inputs": [],
      "name": "ENTRY_FEE",
      "outputs": [
        {
          "internalType": "uint256",
          "name": "",
          "type": "uint256"
        }
      ],
      "stateMutability": "view",
      "type": "function"
    },
    {
      "inputs": [],
      "name": "TOTAL_PLAYERS",
      "outputs": [
        {
          "internalType": "uint256",
          "name": "",
          "type": "uint256"
        }
      ],
      "stateMutability": "view",
      "type": "function"
    },
    {
      "inputs": [],
      "name": "creatorWallet",
      "outputs": [
        {
          "internalType": "address",
          "name": "",
          "type": "address"
        }
      ],
      "stateMutability": "view",
      "type": "function"
    },
    {
      "inputs": [
        {
          "internalType": "bytes32",
          "name": "_gameId",
          "type": "bytes32"
        }
      ],
      "name": "emergencyWithdraw",
      "outputs": [],
      "stateMutability": "nonpayable",
      "type": "function"
    },
    {
      "inputs": [],
      "name": "getContractBalance",
      "outputs": [
        {
          "internalType": "uint256",
          "name": "",
          "type": "uint256"
        }
      ],
      "stateMutability": "view",
      "type": "function"
    },
    {
      "inputs": [],
      "name": "getCreatorWallet",
      "outputs": [
        {
          "internalType": "address",
          "name": "",
          "type": "address"
        }
      ],
      "stateMutability": "view",
      "type": "function"
    },
    {
      "inputs": [
        {
          "internalType": "bytes32",
          "name": "_gameId",
          "type": "bytes32"
        }
      ],
      "name": "getGameDetails",
      "outputs": [
        {
          "internalType": "address[]",
          "name": "players",
          "type": "address[]"
        },
        {
          "internalType": "uint256",
          "name": "poolAmount",
          "type": "uint256"
        },
        {
          "internalType": "bool",
          "name": "isCompleted",
          "type": "bool"
        },
        {
          "internalType": "bool",
          "name": "hasTransferred",
          "type": "bool"
        }
      ],
      "stateMutability": "view",
      "type": "function"
    },
    {
      "inputs": [
        {
          "internalType": "bytes32",
          "name": "_gameId",
          "type": "bytes32"
        }
      ],
      "name": "getPlayerCount",
      "outputs": [
        {
          "internalType": "uint256",
          "name": "",
          "type": "uint256"
        }
      ],
      "stateMutability": "view",
      "type": "function"
    },
    {
      "inputs": [
        {
          "internalType": "bytes32",
          "name": "_gameId",
          "type": "bytes32"
        }
      ],
      "name": "getPlayers",
      "outputs": [
        {
          "internalType": "address[]",
          "name": "",
          "type": "address[]"
        }
      ],
      "stateMutability": "view",
      "type": "function"
    },
    {
      "inputs": [
        {
          "internalType": "bytes32",
          "name": "_gameId",
          "type": "bytes32"
        }
      ],
      "name": "getPoolAmount",
      "outputs": [
        {
          "internalType": "uint256",
          "name": "",
          "type": "uint256"
        }
      ],
      "stateMutability": "view",
      "type": "function"
    },
    {
      "inputs": [
        {
          "internalType": "bytes32",
          "name": "_gameId",
          "type": "bytes32"
        },
        {
          "internalType": "address",
          "name": "_player",
          "type": "address"
        }
      ],
      "name": "hasPlayerDeposited",
      "outputs": [
        {
          "internalType": "bool",
          "name": "",
          "type": "bool"
        }
      ],
      "stateMutability": "view",
      "type": "function"
    },
    {
      "inputs": [
        {
          "internalType": "bytes32",
          "name": "_gameId",
          "type": "bytes32"
        }
      ],
      "name": "hasPrizesTransferred",
      "outputs": [
        {
          "internalType": "bool",
          "name": "",
          "type": "bool"
        }
      ],
      "stateMutability": "view",
      "type": "function"
    },
    {
      "inputs": [
        {
          "internalType": "bytes32",
          "name": "_gameId",
          "type": "bytes32"
        }
      ],
      "name": "isGameCompleted",
      "outputs": [
        {
          "internalType": "bool",
          "name": "",
          "type": "bool"
        }
      ],
      "stateMutability": "view",
      "type": "function"
    },
    {
      "inputs": [],
      "name": "owner",
      "outputs": [
        {
          "internalType": "address",
          "name": "",
          "type": "address"
        }
      ],
      "stateMutability": "view",
      "type": "function"
    },
    {
      "inputs": [
        {
          "internalType": "bytes32",
          "name": "_gameId",
          "type": "bytes32"
        }
      ],
      "name": "playerDeposit",
      "outputs": [],
      "stateMutability": "payable",
      "type": "function"
    },
    {
      "inputs": [
        {
          "internalType": "bytes32",
          "name": "_gameId",
          "type": "bytes32"
        },
        {
          "internalType": "address[4]",
          "name": "_rankedPlayers",
          "type": "address[4]"
        }
      ],
      "name": "prizeWithdrawal",
      "outputs": [],
      "stateMutability": "nonpayable",
      "type": "function"
    },
    {
      "inputs": [
        {
          "internalType": "address",
          "name": "_newCreatorWallet",
          "type": "address"
        }
      ],
      "name": "setCreatorWallet",
      "outputs": [],
      "stateMutability": "nonpayable",
      "type": "function"
    },
    {
      "inputs": [
        {
          "internalType": "address",
          "name": "_newOwner",
          "type": "address"
        }
      ],
      "name": "transferOwnership",
      "outputs": [],
      "stateMutability": "nonpayable",
      "type": "function"
    }
  ],
  "bytecode": "0x608060405234801561001057600080fd5b506040516114d83803806114d883398101604081905261002f916100bf565b6001600160a01b0381166100895760405162461bcd60e51b815260206004820152601660248201527f496e76616c69642063726561746f722077616c6c657400000000000000000000604482015260640160405180910390fd5b60008054336001600160a01b031991821617909155600180549091166001600160a01b03929092169190911781556002556100ef565b6000602082840312156100d157600080fd5b81516001600160a01b03811681146100e857600080fd5b9392505050565b6113da806100fe6000396000f3fe6080604052600436106101095760003560e01c80638a1fa02911610095578063ba69b7f711610064578063ba69b7f71461010e578063d3d9890114610308578063f2fde38b14610328578063f6912f6214610348578063f6d361cc1461035d57600080fd5b80638a1fa0291461026b5780638da5cb5b1461029b578063af1e19d9146102bb578063b4819e12146102e857600080fd5b80634940730b116100dc5780634940730b146101bd578063604da6da146101dd5780636f9fb98a1461021857806375870d651461022b5780637cdc65f21461024b57600080fd5b80631f65db511461010e57806321570d4314610156578063296d19a8146101765780633c37015c146101a8575b600080fd5b34801561011a57600080fd5b5061014161012936600461114a565b60009081526003602052604090206002015460ff1690565b60405190151581526020015b60405180910390f35b34801561016257600080fd5b5061014161017136600461117f565b610379565b34801561018257600080fd5b506001546001600160a01b03165b6040516001600160a01b03909116815260200161014d565b6101bb6101b636600461114a565b6103a9565b005b3480156101c957600080fd5b506101bb6101d83660046111ab565b6105f5565b3480156101e957600080fd5b5061020a6101f836600461114a565b60009081526003602052604090205490565b60405190815260200161014d565b34801561022457600080fd5b504761020a565b34801561023757600080fd5b506101bb61024636600461114a565b6106b9565b34801561025757600080fd5b50600154610190906001600160a01b031681565b34801561027757600080fd5b5061028b61028636600461114a565b6108bc565b60405161014d9493929190611211565b3480156102a757600080fd5b50600054610190906001600160a01b031681565b3480156102c757600080fd5b506102db6102d636600461114a565b610965565b60405161014d9190611242565b3480156102f457600080fd5b5061020a61030336600461114a565b6109d1565b34801561031457600080fd5b506101bb61032336600461126b565b6109f3565b34801561033457600080fd5b506101bb6103433660046111ab565b611088565b34801561035457600080fd5b5061020a600481565b34801561036957600080fd5b5061020a670de0b6b3a764000081565b60008281526003602090815260408083206001600160a01b038516845260010190915290205460ff165b92915050565b60028054036103d35760405162461bcd60e51b81526004016103ca906112fc565b60405180910390fd5b60028055600081815260036020526040902034670de0b6b3a7640000146104325760405162461bcd60e51b8152602060048201526013602482015272496e636f727265637420656e7472792066656560681b60448201526064016103ca565b600281015460ff16156104805760405162461bcd60e51b815260206004820152601660248201527511d85b5948185b1c9958591e4818dbdb5c1b195d195960521b60448201526064016103ca565b80546004116104c05760405162461bcd60e51b815260206004820152600c60248201526b11d85b59481a5cc8199d5b1b60a21b60448201526064016103ca565b33600090815260018201602052604090205460ff16156105225760405162461bcd60e51b815260206004820152601860248201527f506c6179657220616c7265616479206465706f7369746564000000000000000060448201526064016103ca565b8054600180820183556000838152602080822090930180546001600160a01b031916339081179091558082528285018452604091829020805460ff19169093179092558354815134815293840152909184917f56b037fc6b9c847f767384424ebf0862e14b059d33d341f3bd331409f82010e3910160405180910390a38054600319016105ec57817f67656635a63665e7256662905d7205219df6a6151c83b54724b3bad7ccf1d187673782dace9d9000006040516105e391815260200190565b60405180910390a25b50506001600255565b6000546001600160a01b0316331461061f5760405162461bcd60e51b81526004016103ca90611324565b6001600160a01b0381166106675760405162461bcd60e51b815260206004820152600f60248201526e496e76616c6964206164647265737360881b60448201526064016103ca565b600180546001600160a01b038381166001600160a01b0319831681179093556040519116919082907f6b689c4c929a6fdd19fc8a3715997c5112f97f33757da4832bf0ab141c55accd90600090a35050565b6000546001600160a01b031633146106e35760405162461bcd60e51b81526004016103ca90611324565b60028054036107045760405162461bcd60e51b81526004016103ca906112fc565b60028055600081815260036020526040902080546107595760405162461bcd60e51b81526020600482015260126024820152714e6f20706c617965727320696e2067616d6560701b60448201526064016103ca565b600281015460ff16156107ae5760405162461bcd60e51b815260206004820152601a60248201527f5072697a657320616c7265616479207472616e7366657272656400000000000060448201526064016103ca565b805460028201805460ff1916600117905560005b818110156108b15760008360000182815481106107e1576107e1611348565b60009182526020822001546040516001600160a01b0390911692508290670de0b6b3a7640000908381818185875af1925050503d8060008114610840576040519150601f19603f3d011682016040523d82523d6000602084013e610845565b606091505b50509050801561089c57816001600160a01b0316867f668ede93de2924e11e5554ea95dd0839a40ddf58c1f04b209fde0dc8298a75c8670de0b6b3a764000060405161089391815260200190565b60405180910390a35b505080806108a990611374565b9150506107c2565b505060016002555050565b6000818152600360205260408120805460609291829182919082906108ea90670de0b6b3a76400009061138d565b60028301548354604080516020808402820181019092528281529394508593859360ff1692839286919083018282801561094d57602002820191906000526020600020905b81546001600160a01b0316815260019091019060200180831161092f575b50505050509350955095509550955050509193509193565b6000818152600360209081526040918290208054835181840281018401909452808452606093928301828280156109c557602002820191906000526020600020905b81546001600160a01b031681526001909101906020018083116109a7575b50505050509050919050565b6000818152600360205260408120546103a390670de0b6b3a76400009061138d565b6000546001600160a01b03163314610a1d5760405162461bcd60e51b81526004016103ca90611324565b6002805403610a3e5760405162461bcd60e51b81526004016103ca906112fc565b6002805560008281526003602052604090208054600414610aa15760405162461bcd60e51b815260206004820152601960248201527f4e6f7420616c6c20706c6179657273206465706f73697465640000000000000060448201526064016103ca565b600281015460ff1615610af65760405162461bcd60e51b815260206004820152601a60248201527f5072697a657320616c7265616479207472616e7366657272656400000000000060448201526064016103ca565b815160208084015160408086015160608701516001600160a01b038616600090815260018801909552919093205491929160ff16610b6b5760405162461bcd60e51b815260206004820152601260248201527157696e6e6572206e6f7420696e2067616d6560701b60448201526064016103ca565b6001600160a01b038316600090815260018601602052604090205460ff16610bd55760405162461bcd60e51b815260206004820152601860248201527f46697273742072756e6e6572206e6f7420696e2067616d65000000000000000060448201526064016103ca565b6001600160a01b038216600090815260018601602052604090205460ff16610c3f5760405162461bcd60e51b815260206004820152601960248201527f5365636f6e642072756e6e6572206e6f7420696e2067616d650000000000000060448201526064016103ca565b6001600160a01b038116600090815260018601602052604090205460ff16610ca95760405162461bcd60e51b815260206004820152601760248201527f4c61737420706c61796572206e6f7420696e2067616d6500000000000000000060448201526064016103ca565b826001600160a01b0316846001600160a01b031614158015610cdd5750816001600160a01b0316846001600160a01b031614155b8015610cfb5750806001600160a01b0316846001600160a01b031614155b8015610d195750816001600160a01b0316836001600160a01b031614155b8015610d375750806001600160a01b0316836001600160a01b031614155b8015610d555750806001600160a01b0316826001600160a01b031614155b610d9a5760405162461bcd60e51b8152602060048201526016602482015275506c6179657273206d75737420626520756e6971756560501b60448201526064016103ca565b60028501805460ff1916600117905560405160009081906001600160a01b03871690671bc16d674ec80000908381818185875af1925050503d8060008114610dfe576040519150601f19603f3d011682016040523d82523d6000602084013e610e03565b606091505b505090508015610e1b57671bc16d674ec80000820191505b6000856001600160a01b0316670de0b6b3a764000060405160006040518083038185875af1925050503d8060008114610e70576040519150601f19603f3d011682016040523d82523d6000602084013e610e75565b606091505b505090508015610e8d57670de0b6b3a7640000830192505b6000856001600160a01b03166706f05b59d3b2000060405160006040518083038185875af1925050503d8060008114610ee2576040519150601f19603f3d011682016040523d82523d6000602084013e610ee7565b606091505b505090508015610eff576706f05b59d3b20000840193505b673782dace9d900000848103908514610fb7576001546040516000916001600160a01b03169083908381818185875af1925050503d8060008114610f5f576040519150601f19603f3d011682016040523d82523d6000602084013e610f64565b606091505b5050905080610fb55760405162461bcd60e51b815260206004820152601760248201527f43726561746f72207472616e73666572206661696c656400000000000000000060448201526064016103ca565b505b8b7fd8800017132820fa3f7d99da421e8af652b036231c04bd11dc0aa593aab3727d8a86610fe6576000610ff0565b671bc16d674ec800005b8b87610ffd576000611007565b670de0b6b3a76400005b8c8861101457600061101e565b6706f05b59d3b200005b604080516001600160a01b03978816815260208101969096529386168585015260608501929092528416608084015260a0830152918a1660c0820152600060e082015261010081018590529051908190036101200190a25050600160025550505050505050505050565b6000546001600160a01b031633146110b25760405162461bcd60e51b81526004016103ca90611324565b6001600160a01b0381166110fa5760405162461bcd60e51b815260206004820152600f60248201526e496e76616c6964206164647265737360881b60448201526064016103ca565b600080546001600160a01b038381166001600160a01b0319831681178455604051919092169283917f8be0079c531659141344cd1fd0a4f28419497f9722a3daafe3b4186f6b6457e09190a35050565b60006020828403121561115c57600080fd5b5035919050565b80356001600160a01b038116811461117a57600080fd5b919050565b6000806040838503121561119257600080fd5b823591506111a260208401611163565b90509250929050565b6000602082840312156111bd57600080fd5b6111c682611163565b9392505050565b600081518084526020808501945080840160005b838110156112065781516001600160a01b0316875295820195908201906001016111e1565b509495945050505050565b60808152600061122460808301876111cd565b60208301959095525091151560408301521515606090910152919050565b6020815260006111c660208301846111cd565b634e487b7160e01b600052604160045260246000fd5b60008060a0838503121561127e57600080fd5b82359150602084603f85011261129357600080fd5b6040516080810181811067ffffffffffffffff821117156112b6576112b6611255565b6040528060a08601878111156112cb57600080fd5b8387015b818110156112ed576112e081611163565b83529184019184016112cf565b50505080925050509250929050565b6020808252600e908201526d1499595b9d1c985b9d0818d85b1b60921b604082015260600190565b6020808252600a908201526927b7363c9037bbb732b960b11b604082015260600190565b634e487b7160e01b600052603260045260246000fd5b634e487b7160e01b600052601160045260246000fd5b6000600182016113865761138661135e565b5060010190565b80820281158282048414176103a3576103a361135e56fea26469706673582212208b401f7f7ae628e8f78d4f46d79d1b09efc82826c9fbead574b24d6e330d6f0f64736f6c63430008140033",
  "linkReferences": {},
  "deployedLinkReferences": {}
}